{
  "contractName": "Election",
  "abi": [
    {
      "constant": true,
      "inputs": [
        {
          "name": "",
          "type": "uint8"
        }
      ],
      "name": "candidates",
      "outputs": [
        {
          "name": "candidate_name",
          "type": "string"
        },
        {
          "name": "candidate_description",
          "type": "string"
        },
        {
          "name": "imgHash",
          "type": "string"
        },
        {
          "name": "voteCount",
          "type": "uint8"
        },
        {
          "name": "electionId",
          "type": "string"
        }
      ],
      "payable": false,
      "stateMutability": "view",
      "type": "function"
    },
    {
      "constant": false,
      "inputs": [
        {
          "name": "authority",
          "type": "address"
        },
        {
          "name": "name",
          "type": "string"
        },
        {
          "name": "description",
          "type": "string"
        }
      ],
      "name": "initialize",
      "outputs": [],
      "payable": false,
      "stateMutability": "nonpayable",
      "type": "function"
    },
    {
      "constant": false,
      "inputs": [
        {
          "name": "candidate_name",
          "type": "string"
        },
        {
          "name": "candidate_description",
          "type": "string"
        },
        {
          "name": "imgHash",
          "type": "string"
        },
        {
          "name": "electionId",
          "type": "string"
        }
      ],
      "name": "addCandidate",
      "outputs": [],
      "payable": false,
      "stateMutability": "nonpayable",
      "type": "function"
    },
    {
      "constant": false,
      "inputs": [
        {
          "name": "candidateID",
          "type": "uint8"
        },
        {
          "name": "voterId",
          "type": "string"
        }
      ],
      "name": "vote",
      "outputs": [],
      "payable": false,
      "stateMutability": "nonpayable",
      "type": "function"
    },
    {
      "constant": true,
      "inputs": [],
      "name": "getNumOfCandidates",
      "outputs": [
        {
          "name": "",
          "type": "uint8"
        }
      ],
      "payable": false,
      "stateMutability": "view",
      "type": "function"
    },
    {
      "constant": true,
      "inputs": [],
      "name": "getNumOfVoters",
      "outputs": [
        {
          "name": "",
          "type": "uint8"
        }
      ],
      "payable": false,
      "stateMutability": "view",
      "type": "function"
    },
    {
      "constant": true,
      "inputs": [
        {
          "name": "candidateID",
          "type": "uint8"
        }
      ],
      "name": "getCandidate",
      "outputs": [
        {
          "name": "",
          "type": "string"
        },
        {
          "name": "",
          "type": "string"
        },
        {
          "name": "",
          "type": "string"
        },
        {
          "name": "",
          "type": "uint8"
        },
        {
          "name": "",
          "type": "string"
        }
      ],
      "payable": false,
      "stateMutability": "view",
      "type": "function"
    },
    {
      "constant": true,
      "inputs": [],
      "name": "winnerCandidate",
      "outputs": [
        {
          "name": "",
          "type": "uint8"
        }
      ],
      "payable": false,
      "stateMutability": "view",
      "type": "function"
    },
    {
      "constant": true,
      "inputs": [],
      "name": "getElectionDetails",
      "outputs": [
        {
          "name": "",
          "type": "string"
        },
        {
          "name": "",
          "type": "string"
        }
      ],
      "payable": false,
      "stateMutability": "view",
      "type": "function"
    }
  ],
  "bytecode": "0x608060405234801561001057600080fd5b506118f9806100206000396000f300608060405260043610610099576000357c0100000000000000000000000000000000000000000000000000000000900463ffffffff16806342b03cc91461009e57806365fc783c146101d95780636d6277f41461020a5780639065714714610404578063a15148d1146104d3578063b224c40a14610504578063cde9370f1461057a578063e8685ba114610774578063ed836bc3146107a5575b600080fd5b3480156100aa57600080fd5b506101d7600480360381019080803590602001908201803590602001908080601f0160208091040260200160405190810160405280939291908181526020018383808284378201915050505050509192919290803590602001908201803590602001908080601f0160208091040260200160405190810160405280939291908181526020018383808284378201915050505050509192919290803590602001908201803590602001908080601f0160208091040260200160405190810160405280939291908181526020018383808284378201915050505050509192919290803590602001908201803590602001908080601f01602080910402602001604051908101604052809392919081815260200183838082843782019150505050505091929192905050506108a1565b005b3480156101e557600080fd5b506101ee610a7e565b604051808260ff1660ff16815260200191505060405180910390f35b34801561021657600080fd5b50610238600480360381019080803560ff169060200190929190505050610a95565b604051808060200180602001806020018660ff1660ff1681526020018060200185810385528a818151815260200191508051906020019080838360005b83811015610290578082015181840152602081019050610275565b50505050905090810190601f1680156102bd5780820380516001836020036101000a031916815260200191505b50858103845289818151815260200191508051906020019080838360005b838110156102f65780820151818401526020810190506102db565b50505050905090810190601f1680156103235780820380516001836020036101000a031916815260200191505b50858103835288818151815260200191508051906020019080838360005b8381101561035c578082015181840152602081019050610341565b50505050905090810190601f1680156103895780820380516001836020036101000a031916815260200191505b50858103825286818151815260200191508051906020019080838360005b838110156103c25780820151818401526020810190506103a7565b50505050905090810190601f1680156103ef5780820380516001836020036101000a031916815260200191505b50995050505050505050505060405180910390f35b34801561041057600080fd5b506104d1600480360381019080803573ffffffffffffffffffffffffffffffffffffffff169060200190929190803590602001908201803590602001908080601f0160208091040260200160405190810160405280939291908181526020018383808284378201915050505050509192919290803590602001908201803590602001908080601f0160208091040260200160405190810160405280939291908181526020018383808284378201915050505050509192919290505050610d38565b005b3480156104df57600080fd5b506104e8610f55565b604051808260ff1660ff16815260200191505060405180910390f35b34801561051057600080fd5b50610578600480360381019080803560ff169060200190929190803590602001908201803590602001908080601f01602080910402602001604051908101604052809392919081815260200183838082843782019150505050505091929192905050506110e7565b005b34801561058657600080fd5b506105a8600480360381019080803560ff169060200190929190505050611324565b604051808060200180602001806020018660ff1660ff1681526020018060200185810385528a818151815260200191508051906020019080838360005b838110156106005780820151818401526020810190506105e5565b50505050905090810190601f16801561062d5780820380516001836020036101000a031916815260200191505b50858103845289818151815260200191508051906020019080838360005b8381101561066657808201518184015260208101905061064b565b50505050905090810190601f1680156106935780820380516001836020036101000a031916815260200191505b50858103835288818151815260200191508051906020019080838360005b838110156106cc5780820151818401526020810190506106b1565b50505050905090810190601f1680156106f95780820380516001836020036101000a031916815260200191505b50858103825286818151815260200191508051906020019080838360005b83811015610732578082015181840152602081019050610717565b50505050905090810190601f16801561075f5780820380516001836020036101000a031916815260200191505b50995050505050505050505060405180910390f35b34801561078057600080fd5b5061078961164a565b604051808260ff1660ff16815260200191505060405180910390f35b3480156107b157600080fd5b506107ba611661565b604051808060200180602001838103835285818151815260200191508051906020019080838360005b838110156107fe5780820151818401526020810190506107e3565b50505050905090810190601f16801561082b5780820380516001836020036101000a031916815260200191505b50838103825284818151815260200191508051906020019080838360005b83811015610864578082015181840152602081019050610849565b50505050905090810190601f1680156108915780820380516001836020036101000a031916815260200191505b5094505050505060405180910390f35b60008060009054906101000a900473ffffffffffffffffffffffffffffffffffffffff1673ffffffffffffffffffffffffffffffffffffffff163373ffffffffffffffffffffffffffffffffffffffff16141515610967576040517f08c379a00000000000000000000000000000000000000000000000000000000081526004018080602001828103825260158152602001807f4572726f723a204163636573732044656e6965642e000000000000000000000081525060200191505060405180910390fd5b6006600081819054906101000a900460ff168092919060010191906101000a81548160ff021916908360ff160217905550905060a060405190810160405280868152602001858152602001848152602001600060ff16815260200183815250600460008360ff1660ff16815260200190815260200160002060008201518160000190805190602001906109fb9291906117a8565b506020820151816001019080519060200190610a189291906117a8565b506040820151816002019080519060200190610a359291906117a8565b5060608201518160030160006101000a81548160ff021916908360ff1602179055506080820151816004019080519060200190610a739291906117a8565b509050505050505050565b6000600660019054906101000a900460ff16905090565b6004602052806000526040600020600091509050806000018054600181600116156101000203166002900480601f016020809104026020016040519081016040528092919081815260200182805460018160011615610100020316600290048015610b415780601f10610b1657610100808354040283529160200191610b41565b820191906000526020600020905b815481529060010190602001808311610b2457829003601f168201915b505050505090806001018054600181600116156101000203166002900480601f016020809104026020016040519081016040528092919081815260200182805460018160011615610100020316600290048015610bdf5780601f10610bb457610100808354040283529160200191610bdf565b820191906000526020600020905b815481529060010190602001808311610bc257829003601f168201915b505050505090806002018054600181600116156101000203166002900480601f016020809104026020016040519081016040528092919081815260200182805460018160011615610100020316600290048015610c7d5780601f10610c5257610100808354040283529160200191610c7d565b820191906000526020600020905b815481529060010190602001808311610c6057829003601f168201915b5050505050908060030160009054906101000a900460ff1690806004018054600181600116156101000203166002900480601f016020809104026020016040519081016040528092919081815260200182805460018160011615610100020316600290048015610d2e5780601f10610d0357610100808354040283529160200191610d2e565b820191906000526020600020905b815481529060010190602001808311610d1157829003601f168201915b5050505050905085565b600360019054906101000a900460ff16151515610de3576040517f08c379a00000000000000000000000000000000000000000000000000000000081526004018080602001828103825260248152602001807f4572726f723a20436f6e747261637420616c726561647920696e697469616c6981526020017f7a65642e0000000000000000000000000000000000000000000000000000000081525060400191505060405180910390fd5b8273ffffffffffffffffffffffffffffffffffffffff163373ffffffffffffffffffffffffffffffffffffffff16141515610eac576040517f08c379a000000000000000000000000000000000000000000000000000000000815260040180806020018281038252603f8152602001807f4572726f723a204f6e6c792074686520656c656374696f6e20617574686f726981526020017f74792063616e20696e697469616c697a652074686520636f6e74726163742e0081525060400191505060405180910390fd5b826000806101000a81548173ffffffffffffffffffffffffffffffffffffffff021916908373ffffffffffffffffffffffffffffffffffffffff1602179055508160019080519060200190610f02929190611828565b508060029080519060200190610f19929190611828565b506001600360006101000a81548160ff0219169083151502179055506001600360016101000a81548160ff021916908315150217905550505050565b6000806000806000809054906101000a900473ffffffffffffffffffffffffffffffffffffffff1673ffffffffffffffffffffffffffffffffffffffff163373ffffffffffffffffffffffffffffffffffffffff1614151561101f576040517f08c379a00000000000000000000000000000000000000000000000000000000081526004018080602001828103825260158152602001807f4572726f723a204163636573732044656e6965642e000000000000000000000081525060200191505060405180910390fd5b600460008060ff16815260200190815260200160002060030160009054906101000a900460ff169250600190505b600660009054906101000a900460ff1660ff168160ff1610156110de57600460008260ff1660ff16815260200190815260200160002060030160009054906101000a900460ff1660ff168360ff1610156110d157600460008260ff1660ff16815260200190815260200160002060030160009054906101000a900460ff1692508091505b808060010191505061104d565b81935050505090565b6005816040518082805190602001908083835b60208310151561111f57805182526020820191506020810190506020830392506110fa565b6001836020036101000a038019825116818451168082178552505050505050905001915050908152602001604051809103902060000160019054906101000a900460ff161515156111d8576040517f08c379a000000000000000000000000000000000000000000000000000000000815260040180806020018281038252601c8152602001807f4572726f723a596f752063616e6e6f7420646f75626c6520766f74650000000081525060200191505060405180910390fd5b60408051908101604052808360ff168152602001600115158152506005826040518082805190602001908083835b60208310151561122b5780518252602082019150602081019050602083039250611206565b6001836020036101000a038019825116818451168082178552505050505050905001915050908152602001604051809103902060008201518160000160006101000a81548160ff021916908360ff16021790555060208201518160000160016101000a81548160ff0219169083151502179055509050506006600181819054906101000a900460ff168092919060010191906101000a81548160ff021916908360ff16021790555050600460008360ff1660ff168152602001908152602001600020600301600081819054906101000a900460ff168092919060010191906101000a81548160ff021916908360ff160217905550505050565b606080606060006060600460008760ff1660ff168152602001908152602001600020600001600460008860ff1660ff168152602001908152602001600020600101600460008960ff1660ff168152602001908152602001600020600201600460008a60ff1660ff16815260200190815260200160002060030160009054906101000a900460ff16600460008b60ff1660ff168152602001908152602001600020600401848054600181600116156101000203166002900480601f01602080910402602001604051908101604052809291908181526020018280546001816001161561010002031660029004801561145c5780601f106114315761010080835404028352916020019161145c565b820191906000526020600020905b81548152906001019060200180831161143f57829003601f168201915b50505050509450838054600181600116156101000203166002900480601f0160208091040260200160405190810160405280929190818152602001828054600181600116156101000203166002900480156114f85780601f106114cd576101008083540402835291602001916114f8565b820191906000526020600020905b8154815290600101906020018083116114db57829003601f168201915b50505050509350828054600181600116156101000203166002900480601f0160208091040260200160405190810160405280929190818152602001828054600181600116156101000203166002900480156115945780601f1061156957610100808354040283529160200191611594565b820191906000526020600020905b81548152906001019060200180831161157757829003601f168201915b50505050509250808054600181600116156101000203166002900480601f0160208091040260200160405190810160405280929190818152602001828054600181600116156101000203166002900480156116305780601f1061160557610100808354040283529160200191611630565b820191906000526020600020905b81548152906001019060200180831161161357829003601f168201915b505050505090509450945094509450945091939590929450565b6000600660009054906101000a900460ff16905090565b60608060016002818054600181600116156101000203166002900480601f0160208091040260200160405190810160405280929190818152602001828054600181600116156101000203166002900480156116fd5780601f106116d2576101008083540402835291602001916116fd565b820191906000526020600020905b8154815290600101906020018083116116e057829003601f168201915b50505050509150808054600181600116156101000203166002900480601f0160208091040260200160405190810160405280929190818152602001828054600181600116156101000203166002900480156117995780601f1061176e57610100808354040283529160200191611799565b820191906000526020600020905b81548152906001019060200180831161177c57829003601f168201915b50505050509050915091509091565b828054600181600116156101000203166002900490600052602060002090601f016020900481019282601f106117e957805160ff1916838001178555611817565b82800160010185558215611817579182015b828111156118165782518255916020019190600101906117fb565b5b50905061182491906118a8565b5090565b828054600181600116156101000203166002900490600052602060002090601f016020900481019282601f1061186957805160ff1916838001178555611897565b82800160010185558215611897579182015b8281111561189657825182559160200191906001019061187b565b5b5090506118a491906118a8565b5090565b6118ca91905b808211156118c65760008160009055506001016118ae565b5090565b905600a165627a7a72305820fcabbed4ce705880a5ff70772155ca2a23eb689693754675a54f77c5dfc39cc70029",
  "source": "// SPDX-License-Identifier: GPL-3.0\r\n\r\n\r\npragma solidity ^0.4.25;\r\n\r\ncontract ElectionFact {\r\n    \r\n    struct ElectionDet {\r\n        address deployedAddress;\r\n        string el_n;\r\n        string el_d;\r\n    }\r\n    \r\n    mapping(string=>ElectionDet) companyElection;\r\n    \r\n    function createElection(string memory electionId,string memory election_name, string memory election_description) public{\r\n        //address newElection = new Election(msg.sender , election_name, election_description);\r\n        address newElection = new Election();\r\n        \r\n     companyElection[electionId].deployedAddress = newElection;\r\n     companyElection[electionId].el_n = election_name;\r\n     companyElection[electionId].el_d = election_description;\r\n    }\r\n    \r\n    function getDeployedElection(string memory electionId) public view returns (address,string,string) {\r\n        address val =  companyElection[electionId].deployedAddress;\r\n        if(val == 0) \r\n            return (0,\"\",\"Create an election.\");\r\n        else\r\n            return  (companyElection[electionId].deployedAddress,companyElection[electionId].el_n,companyElection[electionId].el_d);\r\n    }\r\n}\r\n\r\ncontract Election {\r\n\r\n    //election_authority's address\r\n    address election_authority;\r\n    string election_name;\r\n    string election_description;\r\n    bool status;\r\n    bool private initialized;\r\n    \r\n    //election_authority's address taken when it deploys the contract\r\n    // constructor(address authority , string name, string description) public {\r\n    //     election_authority = authority;\r\n    //     election_name = name;\r\n    //     election_description = description;\r\n    //     status = true;\r\n    // }\r\n\r\n    // Initialization function that sets the contract's state variables\r\n    function initialize(address authority, string memory name, string memory description) public {\r\n        require(!initialized, \"Error: Contract already initialized.\");\r\n        require(msg.sender == authority, \"Error: Only the election authority can initialize the contract.\");\r\n        election_authority = authority;\r\n        election_name = name;\r\n        election_description = description;\r\n        status = true;\r\n        initialized = true;\r\n    }\r\n\r\n    //Only election_authority can call this function\r\n    modifier owner() {\r\n        require(msg.sender == election_authority, \"Error: Access Denied.\");\r\n        _;\r\n    }\r\n    //candidate election_description\r\n\r\n    struct Candidate {\r\n        string candidate_name;\r\n        string candidate_description;\r\n        string imgHash;\r\n        uint8 voteCount;\r\n        string electionId;\r\n    }\r\n\r\n    //candidate mapping\r\n\r\n    mapping(uint8=>Candidate) public candidates;\r\n\r\n    //voter election_description\r\n\r\n    struct Voter {\r\n        uint8 candidate_id_voted;\r\n        bool voted;\r\n    }\r\n\r\n    //voter mapping\r\n\r\n    mapping(string=>Voter) voters;\r\n\r\n    //counter of number of candidates\r\n\r\n    uint8 numCandidates;\r\n\r\n    //counter of number of voters\r\n\r\n    uint8 numVoters;\r\n\r\n    //function to add candidate to mapping\r\n\r\n    function addCandidate(string memory candidate_name, string memory candidate_description, string memory imgHash,string memory electionId) public owner {\r\n        uint8 candidateID = numCandidates++; //assign id of the candidate\r\n        candidates[candidateID] = Candidate(candidate_name,candidate_description,imgHash,0,electionId); //add the values to the mapping\r\n    }\r\n    //function to vote and check for double voting\r\n\r\n    function vote(uint8 candidateID,string voterId) public {\r\n\r\n        //if false the vote will be registered\r\n        require(!voters[voterId].voted, \"Error:You cannot double vote\");\r\n        \r\n        voters[voterId] = Voter (candidateID,true); //add the values to the mapping\r\n        numVoters++;\r\n        candidates[candidateID].voteCount++; //increment vote counter of candidate\r\n        \r\n    }\r\n\r\n    //function to get count of candidates\r\n\r\n    function getNumOfCandidates() public view returns(uint8) {\r\n        return numCandidates;\r\n    }\r\n\r\n    //function to get count of voters\r\n\r\n    function getNumOfVoters() public view returns(uint8) {\r\n        return numVoters;\r\n    }\r\n\r\n    //function to get candidate information\r\n\r\n    function getCandidate(uint8 candidateID) public view returns (string memory, string memory, string memory, uint8,string memory) {\r\n        return (candidates[candidateID].candidate_name, candidates[candidateID].candidate_description, candidates[candidateID].imgHash, candidates[candidateID].voteCount, candidates[candidateID].electionId);\r\n    } \r\n\r\n    //function to return winner candidate information\r\n\r\n    function winnerCandidate() public view owner returns (uint8) {\r\n        uint8 largestVotes = candidates[0].voteCount;\r\n        uint8 candidateID;\r\n        for(uint8 i = 1;i<numCandidates;i++) {\r\n            if(largestVotes < candidates[i].voteCount) {\r\n                largestVotes = candidates[i].voteCount;\r\n                candidateID = i;\r\n            }\r\n        }\r\n        return (candidateID);\r\n    }\r\n    \r\n    function getElectionDetails() public view returns(string, string) {\r\n        return (election_name,election_description);    \r\n    }\r\n}",
  "sourcePath": "d:\\Projects\\Voting-System\\backend\\contracts\\ElectionFact.sol",
  "compiler": {
    "name": "solc",
    "version": "0.4.25+commit.59dbf8f1.Emscripten.clang"
  },
  "schemaVersion": "3.4.15",
  "updatedAt": "2023-09-09T16:38:55.597Z",
  "networkType": "ethereum",
  "devdoc": {
    "methods": {}
  },
  "userdoc": {
    "methods": {}
  }
}