{
  "contractName": "Election",
  "abi": [
    {
      "constant": true,
      "inputs": [
        {
          "name": "",
          "type": "uint8"
        }
      ],
      "name": "candidates",
      "outputs": [
        {
          "name": "candidate_name",
          "type": "string"
        },
        {
          "name": "candidate_description",
          "type": "string"
        },
        {
          "name": "imgHash",
          "type": "string"
        },
        {
          "name": "voteCount",
          "type": "uint8"
        },
        {
          "name": "electionId",
          "type": "string"
        }
      ],
      "payable": false,
      "stateMutability": "view",
      "type": "function"
    },
    {
      "inputs": [
        {
          "name": "authority",
          "type": "address"
        },
        {
          "name": "name",
          "type": "string"
        },
        {
          "name": "description",
          "type": "string"
        }
      ],
      "payable": false,
      "stateMutability": "nonpayable",
      "type": "constructor"
    },
    {
      "constant": false,
      "inputs": [
        {
          "name": "candidate_name",
          "type": "string"
        },
        {
          "name": "candidate_description",
          "type": "string"
        },
        {
          "name": "imgHash",
          "type": "string"
        },
        {
          "name": "electionId",
          "type": "string"
        }
      ],
      "name": "addCandidate",
      "outputs": [],
      "payable": false,
      "stateMutability": "nonpayable",
      "type": "function"
    },
    {
      "constant": false,
      "inputs": [
        {
          "name": "candidateID",
          "type": "uint8"
        },
        {
          "name": "voterId",
          "type": "string"
        }
      ],
      "name": "vote",
      "outputs": [],
      "payable": false,
      "stateMutability": "nonpayable",
      "type": "function"
    },
    {
      "constant": true,
      "inputs": [],
      "name": "getNumOfCandidates",
      "outputs": [
        {
          "name": "",
          "type": "uint8"
        }
      ],
      "payable": false,
      "stateMutability": "view",
      "type": "function"
    },
    {
      "constant": true,
      "inputs": [],
      "name": "getNumOfVoters",
      "outputs": [
        {
          "name": "",
          "type": "uint8"
        }
      ],
      "payable": false,
      "stateMutability": "view",
      "type": "function"
    },
    {
      "constant": true,
      "inputs": [
        {
          "name": "candidateID",
          "type": "uint8"
        }
      ],
      "name": "getCandidate",
      "outputs": [
        {
          "name": "",
          "type": "string"
        },
        {
          "name": "",
          "type": "string"
        },
        {
          "name": "",
          "type": "string"
        },
        {
          "name": "",
          "type": "uint8"
        },
        {
          "name": "",
          "type": "string"
        }
      ],
      "payable": false,
      "stateMutability": "view",
      "type": "function"
    },
    {
      "constant": true,
      "inputs": [],
      "name": "winnerCandidate",
      "outputs": [
        {
          "name": "",
          "type": "uint8"
        }
      ],
      "payable": false,
      "stateMutability": "view",
      "type": "function"
    },
    {
      "constant": true,
      "inputs": [],
      "name": "getElectionDetails",
      "outputs": [
        {
          "name": "",
          "type": "string"
        },
        {
          "name": "",
          "type": "string"
        }
      ],
      "payable": false,
      "stateMutability": "view",
      "type": "function"
    }
  ],
  "bytecode": "0x60806040523480156200001157600080fd5b506040516200172138038062001721833981018060405281019080805190602001909291908051820192919060200180518201929190505050826000806101000a81548173ffffffffffffffffffffffffffffffffffffffff021916908373ffffffffffffffffffffffffffffffffffffffff1602179055508160019080519060200190620000a2929190620000e0565b508060029080519060200190620000bb929190620000e0565b506001600360006101000a81548160ff0219169083151502179055505050506200018f565b828054600181600116156101000203166002900490600052602060002090601f016020900481019282601f106200012357805160ff191683800117855562000154565b8280016001018555821562000154579182015b828111156200015357825182559160200191906001019062000136565b5b50905062000163919062000167565b5090565b6200018c91905b80821115620001885760008160009055506001016200016e565b5090565b90565b611582806200019f6000396000f30060806040526004361061008e576000357c0100000000000000000000000000000000000000000000000000000000900463ffffffff16806342b03cc91461009357806365fc783c146101ce5780636d6277f4146101ff578063a15148d1146103f9578063b224c40a1461042a578063cde9370f146104a0578063e8685ba11461069a578063ed836bc3146106cb575b600080fd5b34801561009f57600080fd5b506101cc600480360381019080803590602001908201803590602001908080601f0160208091040260200160405190810160405280939291908181526020018383808284378201915050505050509192919290803590602001908201803590602001908080601f0160208091040260200160405190810160405280939291908181526020018383808284378201915050505050509192919290803590602001908201803590602001908080601f0160208091040260200160405190810160405280939291908181526020018383808284378201915050505050509192919290803590602001908201803590602001908080601f01602080910402602001604051908101604052809392919081815260200183838082843782019150505050505091929192905050506107c7565b005b3480156101da57600080fd5b506101e36109a4565b604051808260ff1660ff16815260200191505060405180910390f35b34801561020b57600080fd5b5061022d600480360381019080803560ff1690602001909291905050506109bb565b604051808060200180602001806020018660ff1660ff1681526020018060200185810385528a818151815260200191508051906020019080838360005b8381101561028557808201518184015260208101905061026a565b50505050905090810190601f1680156102b25780820380516001836020036101000a031916815260200191505b50858103845289818151815260200191508051906020019080838360005b838110156102eb5780820151818401526020810190506102d0565b50505050905090810190601f1680156103185780820380516001836020036101000a031916815260200191505b50858103835288818151815260200191508051906020019080838360005b83811015610351578082015181840152602081019050610336565b50505050905090810190601f16801561037e5780820380516001836020036101000a031916815260200191505b50858103825286818151815260200191508051906020019080838360005b838110156103b757808201518184015260208101905061039c565b50505050905090810190601f1680156103e45780820380516001836020036101000a031916815260200191505b50995050505050505050505060405180910390f35b34801561040557600080fd5b5061040e610c5e565b604051808260ff1660ff16815260200191505060405180910390f35b34801561043657600080fd5b5061049e600480360381019080803560ff169060200190929190803590602001908201803590602001908080601f0160208091040260200160405190810160405280939291908181526020018383808284378201915050505050509192919290505050610df0565b005b3480156104ac57600080fd5b506104ce600480360381019080803560ff16906020019092919050505061102d565b604051808060200180602001806020018660ff1660ff1681526020018060200185810385528a818151815260200191508051906020019080838360005b8381101561052657808201518184015260208101905061050b565b50505050905090810190601f1680156105535780820380516001836020036101000a031916815260200191505b50858103845289818151815260200191508051906020019080838360005b8381101561058c578082015181840152602081019050610571565b50505050905090810190601f1680156105b95780820380516001836020036101000a031916815260200191505b50858103835288818151815260200191508051906020019080838360005b838110156105f25780820151818401526020810190506105d7565b50505050905090810190601f16801561061f5780820380516001836020036101000a031916815260200191505b50858103825286818151815260200191508051906020019080838360005b8381101561065857808201518184015260208101905061063d565b50505050905090810190601f1680156106855780820380516001836020036101000a031916815260200191505b50995050505050505050505060405180910390f35b3480156106a657600080fd5b506106af611353565b604051808260ff1660ff16815260200191505060405180910390f35b3480156106d757600080fd5b506106e061136a565b604051808060200180602001838103835285818151815260200191508051906020019080838360005b83811015610724578082015181840152602081019050610709565b50505050905090810190601f1680156107515780820380516001836020036101000a031916815260200191505b50838103825284818151815260200191508051906020019080838360005b8381101561078a57808201518184015260208101905061076f565b50505050905090810190601f1680156107b75780820380516001836020036101000a031916815260200191505b5094505050505060405180910390f35b60008060009054906101000a900473ffffffffffffffffffffffffffffffffffffffff1673ffffffffffffffffffffffffffffffffffffffff163373ffffffffffffffffffffffffffffffffffffffff1614151561088d576040517f08c379a00000000000000000000000000000000000000000000000000000000081526004018080602001828103825260158152602001807f4572726f723a204163636573732044656e6965642e000000000000000000000081525060200191505060405180910390fd5b6006600081819054906101000a900460ff168092919060010191906101000a81548160ff021916908360ff160217905550905060a060405190810160405280868152602001858152602001848152602001600060ff16815260200183815250600460008360ff1660ff16815260200190815260200160002060008201518160000190805190602001906109219291906114b1565b50602082015181600101908051906020019061093e9291906114b1565b50604082015181600201908051906020019061095b9291906114b1565b5060608201518160030160006101000a81548160ff021916908360ff16021790555060808201518160040190805190602001906109999291906114b1565b509050505050505050565b6000600660019054906101000a900460ff16905090565b6004602052806000526040600020600091509050806000018054600181600116156101000203166002900480601f016020809104026020016040519081016040528092919081815260200182805460018160011615610100020316600290048015610a675780601f10610a3c57610100808354040283529160200191610a67565b820191906000526020600020905b815481529060010190602001808311610a4a57829003601f168201915b505050505090806001018054600181600116156101000203166002900480601f016020809104026020016040519081016040528092919081815260200182805460018160011615610100020316600290048015610b055780601f10610ada57610100808354040283529160200191610b05565b820191906000526020600020905b815481529060010190602001808311610ae857829003601f168201915b505050505090806002018054600181600116156101000203166002900480601f016020809104026020016040519081016040528092919081815260200182805460018160011615610100020316600290048015610ba35780601f10610b7857610100808354040283529160200191610ba3565b820191906000526020600020905b815481529060010190602001808311610b8657829003601f168201915b5050505050908060030160009054906101000a900460ff1690806004018054600181600116156101000203166002900480601f016020809104026020016040519081016040528092919081815260200182805460018160011615610100020316600290048015610c545780601f10610c2957610100808354040283529160200191610c54565b820191906000526020600020905b815481529060010190602001808311610c3757829003601f168201915b5050505050905085565b6000806000806000809054906101000a900473ffffffffffffffffffffffffffffffffffffffff1673ffffffffffffffffffffffffffffffffffffffff163373ffffffffffffffffffffffffffffffffffffffff16141515610d28576040517f08c379a00000000000000000000000000000000000000000000000000000000081526004018080602001828103825260158152602001807f4572726f723a204163636573732044656e6965642e000000000000000000000081525060200191505060405180910390fd5b600460008060ff16815260200190815260200160002060030160009054906101000a900460ff169250600190505b600660009054906101000a900460ff1660ff168160ff161015610de757600460008260ff1660ff16815260200190815260200160002060030160009054906101000a900460ff1660ff168360ff161015610dda57600460008260ff1660ff16815260200190815260200160002060030160009054906101000a900460ff1692508091505b8080600101915050610d56565b81935050505090565b6005816040518082805190602001908083835b602083101515610e285780518252602082019150602081019050602083039250610e03565b6001836020036101000a038019825116818451168082178552505050505050905001915050908152602001604051809103902060000160019054906101000a900460ff16151515610ee1576040517f08c379a000000000000000000000000000000000000000000000000000000000815260040180806020018281038252601c8152602001807f4572726f723a596f752063616e6e6f7420646f75626c6520766f74650000000081525060200191505060405180910390fd5b60408051908101604052808360ff168152602001600115158152506005826040518082805190602001908083835b602083101515610f345780518252602082019150602081019050602083039250610f0f565b6001836020036101000a038019825116818451168082178552505050505050905001915050908152602001604051809103902060008201518160000160006101000a81548160ff021916908360ff16021790555060208201518160000160016101000a81548160ff0219169083151502179055509050506006600181819054906101000a900460ff168092919060010191906101000a81548160ff021916908360ff16021790555050600460008360ff1660ff168152602001908152602001600020600301600081819054906101000a900460ff168092919060010191906101000a81548160ff021916908360ff160217905550505050565b606080606060006060600460008760ff1660ff168152602001908152602001600020600001600460008860ff1660ff168152602001908152602001600020600101600460008960ff1660ff168152602001908152602001600020600201600460008a60ff1660ff16815260200190815260200160002060030160009054906101000a900460ff16600460008b60ff1660ff168152602001908152602001600020600401848054600181600116156101000203166002900480601f0160208091040260200160405190810160405280929190818152602001828054600181600116156101000203166002900480156111655780601f1061113a57610100808354040283529160200191611165565b820191906000526020600020905b81548152906001019060200180831161114857829003601f168201915b50505050509450838054600181600116156101000203166002900480601f0160208091040260200160405190810160405280929190818152602001828054600181600116156101000203166002900480156112015780601f106111d657610100808354040283529160200191611201565b820191906000526020600020905b8154815290600101906020018083116111e457829003601f168201915b50505050509350828054600181600116156101000203166002900480601f01602080910402602001604051908101604052809291908181526020018280546001816001161561010002031660029004801561129d5780601f106112725761010080835404028352916020019161129d565b820191906000526020600020905b81548152906001019060200180831161128057829003601f168201915b50505050509250808054600181600116156101000203166002900480601f0160208091040260200160405190810160405280929190818152602001828054600181600116156101000203166002900480156113395780601f1061130e57610100808354040283529160200191611339565b820191906000526020600020905b81548152906001019060200180831161131c57829003601f168201915b505050505090509450945094509450945091939590929450565b6000600660009054906101000a900460ff16905090565b60608060016002818054600181600116156101000203166002900480601f0160208091040260200160405190810160405280929190818152602001828054600181600116156101000203166002900480156114065780601f106113db57610100808354040283529160200191611406565b820191906000526020600020905b8154815290600101906020018083116113e957829003601f168201915b50505050509150808054600181600116156101000203166002900480601f0160208091040260200160405190810160405280929190818152602001828054600181600116156101000203166002900480156114a25780601f10611477576101008083540402835291602001916114a2565b820191906000526020600020905b81548152906001019060200180831161148557829003601f168201915b50505050509050915091509091565b828054600181600116156101000203166002900490600052602060002090601f016020900481019282601f106114f257805160ff1916838001178555611520565b82800160010185558215611520579182015b8281111561151f578251825591602001919060010190611504565b5b50905061152d9190611531565b5090565b61155391905b8082111561154f576000816000905550600101611537565b5090565b905600a165627a7a723058203d36a1756dbb4e5703f6e84c4c8e8c8502c6308cb16081f390b26066a04b6cd30029",
  "source": "// SPDX-License-Identifier: GPL-3.0\r\n\r\n\r\npragma solidity ^0.4.25;\r\n\r\ncontract ElectionFact {\r\n    \r\n    struct ElectionDet {\r\n        address deployedAddress;\r\n        string el_n;\r\n        string el_d;\r\n    }\r\n    \r\n    mapping(string=>ElectionDet) companyElection;\r\n    \r\n    function createElection(string memory electionId,string memory election_name, string memory election_description) public{\r\n        address newElection = new Election(msg.sender , election_name, election_description);\r\n        \r\n     companyElection[electionId].deployedAddress = newElection;\r\n     companyElection[electionId].el_n = election_name;\r\n     companyElection[electionId].el_d = election_description;\r\n    }\r\n    \r\n    function getDeployedElection(string memory electionId) public view returns (address,string,string) {\r\n        address val =  companyElection[electionId].deployedAddress;\r\n        if(val == 0) \r\n            return (0,\"\",\"Create an election.\");\r\n        else\r\n            return  (companyElection[electionId].deployedAddress,companyElection[electionId].el_n,companyElection[electionId].el_d);\r\n    }\r\n}\r\n\r\ncontract Election {\r\n\r\n    //election_authority's address\r\n    address election_authority;\r\n    string election_name;\r\n    string election_description;\r\n    bool status;\r\n    \r\n    //election_authority's address taken when it deploys the contract\r\n    constructor(address authority , string name, string description) public {\r\n        election_authority = authority;\r\n        election_name = name;\r\n        election_description = description;\r\n        status = true;\r\n    }\r\n\r\n    //Only election_authority can call this function\r\n    modifier owner() {\r\n        require(msg.sender == election_authority, \"Error: Access Denied.\");\r\n        _;\r\n    }\r\n    //candidate election_description\r\n\r\n    struct Candidate {\r\n        string candidate_name;\r\n        string candidate_description;\r\n        string imgHash;\r\n        uint8 voteCount;\r\n        string electionId;\r\n    }\r\n\r\n    //candidate mapping\r\n\r\n    mapping(uint8=>Candidate) public candidates;\r\n\r\n    //voter election_description\r\n\r\n    struct Voter {\r\n        uint8 candidate_id_voted;\r\n        bool voted;\r\n    }\r\n\r\n    //voter mapping\r\n\r\n    mapping(string=>Voter) voters;\r\n\r\n    //counter of number of candidates\r\n\r\n    uint8 numCandidates;\r\n\r\n    //counter of number of voters\r\n\r\n    uint8 numVoters;\r\n\r\n    //function to add candidate to mapping\r\n\r\n    function addCandidate(string memory candidate_name, string memory candidate_description, string memory imgHash,string memory electionId) public owner {\r\n        uint8 candidateID = numCandidates++; //assign id of the candidate\r\n        candidates[candidateID] = Candidate(candidate_name,candidate_description,imgHash,0,electionId); //add the values to the mapping\r\n    }\r\n    //function to vote and check for double voting\r\n\r\n    function vote(uint8 candidateID,string voterId) public {\r\n\r\n        //if false the vote will be registered\r\n        require(!voters[voterId].voted, \"Error:You cannot double vote\");\r\n        \r\n        voters[voterId] = Voter (candidateID,true); //add the values to the mapping\r\n        numVoters++;\r\n        candidates[candidateID].voteCount++; //increment vote counter of candidate\r\n        \r\n    }\r\n\r\n    //function to get count of candidates\r\n\r\n    function getNumOfCandidates() public view returns(uint8) {\r\n        return numCandidates;\r\n    }\r\n\r\n    //function to get count of voters\r\n\r\n    function getNumOfVoters() public view returns(uint8) {\r\n        return numVoters;\r\n    }\r\n\r\n    //function to get candidate information\r\n\r\n    function getCandidate(uint8 candidateID) public view returns (string memory, string memory, string memory, uint8,string memory) {\r\n        return (candidates[candidateID].candidate_name, candidates[candidateID].candidate_description, candidates[candidateID].imgHash, candidates[candidateID].voteCount, candidates[candidateID].electionId);\r\n    } \r\n\r\n    //function to return winner candidate information\r\n\r\n    function winnerCandidate() public view owner returns (uint8) {\r\n        uint8 largestVotes = candidates[0].voteCount;\r\n        uint8 candidateID;\r\n        for(uint8 i = 1;i<numCandidates;i++) {\r\n            if(largestVotes < candidates[i].voteCount) {\r\n                largestVotes = candidates[i].voteCount;\r\n                candidateID = i;\r\n            }\r\n        }\r\n        return (candidateID);\r\n    }\r\n    \r\n    function getElectionDetails() public view returns(string, string) {\r\n        return (election_name,election_description);    \r\n    }\r\n}",
  "sourcePath": "d:\\Projects\\Voting-System\\backend\\contracts\\Election.sol",
  "compiler": {
    "name": "solc",
    "version": "0.4.25+commit.59dbf8f1.Emscripten.clang"
  },
  "schemaVersion": "3.4.15",
  "updatedAt": "2023-09-08T17:39:10.232Z",
  "devdoc": {
    "methods": {}
  },
  "userdoc": {
    "methods": {}
  }
}